{
  "_format": "hh-sol-artifact-1",
  "contractName": "SoulboundNFT",
  "sourceName": "contracts/SoulboundNFT.sol",
  "abi": [
    {
      "inputs": [],
      "stateMutability": "nonpayable",
      "type": "constructor"
    },
    {
      "inputs": [],
      "name": "ERC721EnumerableForbiddenBatchMint",
      "type": "error"
    },
    {
      "inputs": [
        {
          "internalType": "address",
          "name": "sender",
          "type": "address"
        },
        {
          "internalType": "uint256",
          "name": "tokenId",
          "type": "uint256"
        },
        {
          "internalType": "address",
          "name": "owner",
          "type": "address"
        }
      ],
      "name": "ERC721IncorrectOwner",
      "type": "error"
    },
    {
      "inputs": [
        {
          "internalType": "address",
          "name": "operator",
          "type": "address"
        },
        {
          "internalType": "uint256",
          "name": "tokenId",
          "type": "uint256"
        }
      ],
      "name": "ERC721InsufficientApproval",
      "type": "error"
    },
    {
      "inputs": [
        {
          "internalType": "address",
          "name": "approver",
          "type": "address"
        }
      ],
      "name": "ERC721InvalidApprover",
      "type": "error"
    },
    {
      "inputs": [
        {
          "internalType": "address",
          "name": "operator",
          "type": "address"
        }
      ],
      "name": "ERC721InvalidOperator",
      "type": "error"
    },
    {
      "inputs": [
        {
          "internalType": "address",
          "name": "owner",
          "type": "address"
        }
      ],
      "name": "ERC721InvalidOwner",
      "type": "error"
    },
    {
      "inputs": [
        {
          "internalType": "address",
          "name": "receiver",
          "type": "address"
        }
      ],
      "name": "ERC721InvalidReceiver",
      "type": "error"
    },
    {
      "inputs": [
        {
          "internalType": "address",
          "name": "sender",
          "type": "address"
        }
      ],
      "name": "ERC721InvalidSender",
      "type": "error"
    },
    {
      "inputs": [
        {
          "internalType": "uint256",
          "name": "tokenId",
          "type": "uint256"
        }
      ],
      "name": "ERC721NonexistentToken",
      "type": "error"
    },
    {
      "inputs": [
        {
          "internalType": "address",
          "name": "owner",
          "type": "address"
        },
        {
          "internalType": "uint256",
          "name": "index",
          "type": "uint256"
        }
      ],
      "name": "ERC721OutOfBoundsIndex",
      "type": "error"
    },
    {
      "inputs": [
        {
          "internalType": "address",
          "name": "owner",
          "type": "address"
        }
      ],
      "name": "OwnableInvalidOwner",
      "type": "error"
    },
    {
      "inputs": [
        {
          "internalType": "address",
          "name": "account",
          "type": "address"
        }
      ],
      "name": "OwnableUnauthorizedAccount",
      "type": "error"
    },
    {
      "anonymous": false,
      "inputs": [
        {
          "indexed": true,
          "internalType": "address",
          "name": "owner",
          "type": "address"
        },
        {
          "indexed": true,
          "internalType": "address",
          "name": "approved",
          "type": "address"
        },
        {
          "indexed": true,
          "internalType": "uint256",
          "name": "tokenId",
          "type": "uint256"
        }
      ],
      "name": "Approval",
      "type": "event"
    },
    {
      "anonymous": false,
      "inputs": [
        {
          "indexed": true,
          "internalType": "address",
          "name": "owner",
          "type": "address"
        },
        {
          "indexed": true,
          "internalType": "address",
          "name": "operator",
          "type": "address"
        },
        {
          "indexed": false,
          "internalType": "bool",
          "name": "approved",
          "type": "bool"
        }
      ],
      "name": "ApprovalForAll",
      "type": "event"
    },
    {
      "anonymous": false,
      "inputs": [
        {
          "indexed": true,
          "internalType": "address",
          "name": "previousOwner",
          "type": "address"
        },
        {
          "indexed": true,
          "internalType": "address",
          "name": "newOwner",
          "type": "address"
        }
      ],
      "name": "OwnershipTransferred",
      "type": "event"
    },
    {
      "anonymous": false,
      "inputs": [
        {
          "indexed": true,
          "internalType": "uint256",
          "name": "tokenId",
          "type": "uint256"
        }
      ],
      "name": "TokenMetadataRequested",
      "type": "event"
    },
    {
      "anonymous": false,
      "inputs": [
        {
          "indexed": true,
          "internalType": "address",
          "name": "recipient",
          "type": "address"
        },
        {
          "indexed": true,
          "internalType": "uint256",
          "name": "tokenId",
          "type": "uint256"
        },
        {
          "indexed": false,
          "internalType": "string",
          "name": "name",
          "type": "string"
        },
        {
          "indexed": false,
          "internalType": "string",
          "name": "surname",
          "type": "string"
        },
        {
          "indexed": false,
          "internalType": "string",
          "name": "workplace",
          "type": "string"
        },
        {
          "indexed": false,
          "internalType": "string",
          "name": "imageUrl",
          "type": "string"
        }
      ],
      "name": "TokenMinted",
      "type": "event"
    },
    {
      "anonymous": false,
      "inputs": [
        {
          "indexed": true,
          "internalType": "uint256",
          "name": "tokenId",
          "type": "uint256"
        },
        {
          "indexed": true,
          "internalType": "address",
          "name": "owner",
          "type": "address"
        }
      ],
      "name": "TokenRevoked",
      "type": "event"
    },
    {
      "anonymous": false,
      "inputs": [
        {
          "indexed": true,
          "internalType": "address",
          "name": "from",
          "type": "address"
        },
        {
          "indexed": true,
          "internalType": "address",
          "name": "to",
          "type": "address"
        },
        {
          "indexed": true,
          "internalType": "uint256",
          "name": "tokenId",
          "type": "uint256"
        }
      ],
      "name": "Transfer",
      "type": "event"
    },
    {
      "inputs": [
        {
          "internalType": "address",
          "name": "to",
          "type": "address"
        },
        {
          "internalType": "uint256",
          "name": "tokenId",
          "type": "uint256"
        }
      ],
      "name": "approve",
      "outputs": [],
      "stateMutability": "nonpayable",
      "type": "function"
    },
    {
      "inputs": [
        {
          "internalType": "address",
          "name": "owner",
          "type": "address"
        }
      ],
      "name": "balanceOf",
      "outputs": [
        {
          "internalType": "uint256",
          "name": "",
          "type": "uint256"
        }
      ],
      "stateMutability": "view",
      "type": "function"
    },
    {
      "inputs": [
        {
          "internalType": "uint256",
          "name": "tokenId",
          "type": "uint256"
        }
      ],
      "name": "exists",
      "outputs": [
        {
          "internalType": "bool",
          "name": "",
          "type": "bool"
        }
      ],
      "stateMutability": "view",
      "type": "function"
    },
    {
      "inputs": [
        {
          "internalType": "uint256",
          "name": "tokenId",
          "type": "uint256"
        }
      ],
      "name": "getApproved",
      "outputs": [
        {
          "internalType": "address",
          "name": "",
          "type": "address"
        }
      ],
      "stateMutability": "view",
      "type": "function"
    },
    {
      "inputs": [
        {
          "internalType": "uint256",
          "name": "tokenId",
          "type": "uint256"
        }
      ],
      "name": "getTokenMetadata",
      "outputs": [
        {
          "components": [
            {
              "internalType": "string",
              "name": "name",
              "type": "string"
            },
            {
              "internalType": "string",
              "name": "surname",
              "type": "string"
            },
            {
              "internalType": "string",
              "name": "workplace",
              "type": "string"
            },
            {
              "internalType": "string",
              "name": "imageUrl",
              "type": "string"
            }
          ],
          "internalType": "struct SoulboundNFT.NFTMetadata",
          "name": "",
          "type": "tuple"
        }
      ],
      "stateMutability": "view",
      "type": "function"
    },
    {
      "inputs": [
        {
          "internalType": "address",
          "name": "owner",
          "type": "address"
        },
        {
          "internalType": "address",
          "name": "operator",
          "type": "address"
        }
      ],
      "name": "isApprovedForAll",
      "outputs": [
        {
          "internalType": "bool",
          "name": "",
          "type": "bool"
        }
      ],
      "stateMutability": "view",
      "type": "function"
    },
    {
      "inputs": [
        {
          "internalType": "address",
          "name": "to",
          "type": "address"
        },
        {
          "internalType": "string",
          "name": "name",
          "type": "string"
        },
        {
          "internalType": "string",
          "name": "surname",
          "type": "string"
        },
        {
          "internalType": "string",
          "name": "workplace",
          "type": "string"
        },
        {
          "internalType": "string",
          "name": "imageUrl",
          "type": "string"
        },
        {
          "internalType": "string",
          "name": "issuer",
          "type": "string"
        },
        {
          "internalType": "string",
          "name": "issuanceDate",
          "type": "string"
        },
        {
          "internalType": "string",
          "name": "signature",
          "type": "string"
        }
      ],
      "name": "mint",
      "outputs": [],
      "stateMutability": "nonpayable",
      "type": "function"
    },
    {
      "inputs": [],
      "name": "name",
      "outputs": [
        {
          "internalType": "string",
          "name": "",
          "type": "string"
        }
      ],
      "stateMutability": "view",
      "type": "function"
    },
    {
      "inputs": [],
      "name": "owner",
      "outputs": [
        {
          "internalType": "address",
          "name": "",
          "type": "address"
        }
      ],
      "stateMutability": "view",
      "type": "function"
    },
    {
      "inputs": [
        {
          "internalType": "uint256",
          "name": "tokenId",
          "type": "uint256"
        }
      ],
      "name": "ownerOf",
      "outputs": [
        {
          "internalType": "address",
          "name": "",
          "type": "address"
        }
      ],
      "stateMutability": "view",
      "type": "function"
    },
    {
      "inputs": [],
      "name": "renounceOwnership",
      "outputs": [],
      "stateMutability": "nonpayable",
      "type": "function"
    },
    {
      "inputs": [
        {
          "internalType": "uint256",
          "name": "tokenId",
          "type": "uint256"
        }
      ],
      "name": "revoke",
      "outputs": [],
      "stateMutability": "nonpayable",
      "type": "function"
    },
    {
      "inputs": [
        {
          "internalType": "address",
          "name": "from",
          "type": "address"
        },
        {
          "internalType": "address",
          "name": "to",
          "type": "address"
        },
        {
          "internalType": "uint256",
          "name": "tokenId",
          "type": "uint256"
        }
      ],
      "name": "safeTransferFrom",
      "outputs": [],
      "stateMutability": "nonpayable",
      "type": "function"
    },
    {
      "inputs": [
        {
          "internalType": "address",
          "name": "from",
          "type": "address"
        },
        {
          "internalType": "address",
          "name": "to",
          "type": "address"
        },
        {
          "internalType": "uint256",
          "name": "tokenId",
          "type": "uint256"
        },
        {
          "internalType": "bytes",
          "name": "data",
          "type": "bytes"
        }
      ],
      "name": "safeTransferFrom",
      "outputs": [],
      "stateMutability": "nonpayable",
      "type": "function"
    },
    {
      "inputs": [
        {
          "internalType": "address",
          "name": "operator",
          "type": "address"
        },
        {
          "internalType": "bool",
          "name": "approved",
          "type": "bool"
        }
      ],
      "name": "setApprovalForAll",
      "outputs": [],
      "stateMutability": "nonpayable",
      "type": "function"
    },
    {
      "inputs": [
        {
          "internalType": "bytes4",
          "name": "interfaceId",
          "type": "bytes4"
        }
      ],
      "name": "supportsInterface",
      "outputs": [
        {
          "internalType": "bool",
          "name": "",
          "type": "bool"
        }
      ],
      "stateMutability": "view",
      "type": "function"
    },
    {
      "inputs": [],
      "name": "symbol",
      "outputs": [
        {
          "internalType": "string",
          "name": "",
          "type": "string"
        }
      ],
      "stateMutability": "view",
      "type": "function"
    },
    {
      "inputs": [
        {
          "internalType": "uint256",
          "name": "index",
          "type": "uint256"
        }
      ],
      "name": "tokenByIndex",
      "outputs": [
        {
          "internalType": "uint256",
          "name": "",
          "type": "uint256"
        }
      ],
      "stateMutability": "view",
      "type": "function"
    },
    {
      "inputs": [
        {
          "internalType": "address",
          "name": "owner",
          "type": "address"
        },
        {
          "internalType": "uint256",
          "name": "index",
          "type": "uint256"
        }
      ],
      "name": "tokenOfOwnerByIndex",
      "outputs": [
        {
          "internalType": "uint256",
          "name": "",
          "type": "uint256"
        }
      ],
      "stateMutability": "view",
      "type": "function"
    },
    {
      "inputs": [
        {
          "internalType": "uint256",
          "name": "tokenId",
          "type": "uint256"
        }
      ],
      "name": "tokenURI",
      "outputs": [
        {
          "internalType": "string",
          "name": "",
          "type": "string"
        }
      ],
      "stateMutability": "view",
      "type": "function"
    },
    {
      "inputs": [],
      "name": "totalSupply",
      "outputs": [
        {
          "internalType": "uint256",
          "name": "",
          "type": "uint256"
        }
      ],
      "stateMutability": "view",
      "type": "function"
    },
    {
      "inputs": [
        {
          "internalType": "address",
          "name": "from",
          "type": "address"
        },
        {
          "internalType": "address",
          "name": "to",
          "type": "address"
        },
        {
          "internalType": "uint256",
          "name": "tokenId",
          "type": "uint256"
        }
      ],
      "name": "transferFrom",
      "outputs": [],
      "stateMutability": "nonpayable",
      "type": "function"
    },
    {
      "inputs": [
        {
          "internalType": "address",
          "name": "newOwner",
          "type": "address"
        }
      ],
      "name": "transferOwnership",
      "outputs": [],
      "stateMutability": "nonpayable",
      "type": "function"
    }
  ],
  "bytecode": "0x608060405234801561001057600080fd5b50336040518060400160405280600c81526020017f536f756c626f756e644e465400000000000000000000000000000000000000008152506040518060400160405280600581526020017f53424e4654000000000000000000000000000000000000000000000000000000815250816000908161008d919061043d565b50806001908161009d919061043d565b505050600073ffffffffffffffffffffffffffffffffffffffff168173ffffffffffffffffffffffffffffffffffffffff16036101125760006040517f1e4fbdf70000000000000000000000000000000000000000000000000000000081526004016101099190610550565b60405180910390fd5b6101218161012760201b60201c565b5061056b565b6000600a60009054906101000a900473ffffffffffffffffffffffffffffffffffffffff16905081600a60006101000a81548173ffffffffffffffffffffffffffffffffffffffff021916908373ffffffffffffffffffffffffffffffffffffffff1602179055508173ffffffffffffffffffffffffffffffffffffffff168173ffffffffffffffffffffffffffffffffffffffff167f8be0079c531659141344cd1fd0a4f28419497f9722a3daafe3b4186f6b6457e060405160405180910390a35050565b600081519050919050565b7f4e487b7100000000000000000000000000000000000000000000000000000000600052604160045260246000fd5b7f4e487b7100000000000000000000000000000000000000000000000000000000600052602260045260246000fd5b6000600282049050600182168061026e57607f821691505b60208210810361028157610280610227565b5b50919050565b60008190508160005260206000209050919050565b60006020601f8301049050919050565b600082821b905092915050565b6000600883026102e97fffffffffffffffffffffffffffffffffffffffffffffffffffffffffffffffff826102ac565b6102f386836102ac565b95508019841693508086168417925050509392505050565b6000819050919050565b6000819050919050565b600061033a6103356103308461030b565b610315565b61030b565b9050919050565b6000819050919050565b6103548361031f565b61036861036082610341565b8484546102b9565b825550505050565b600090565b61037d610370565b61038881848461034b565b505050565b5b818110156103ac576103a1600082610375565b60018101905061038e565b5050565b601f8211156103f1576103c281610287565b6103cb8461029c565b810160208510156103da578190505b6103ee6103e68561029c565b83018261038d565b50505b505050565b600082821c905092915050565b6000610414600019846008026103f6565b1980831691505092915050565b600061042d8383610403565b9150826002028217905092915050565b610446826101ed565b67ffffffffffffffff81111561045f5761045e6101f8565b5b6104698254610256565b6104748282856103b0565b600060209050601f8311600181146104a75760008415610495578287015190505b61049f8582610421565b865550610507565b601f1984166104b586610287565b60005b828110156104dd578489015182556001820191506020850194506020810190506104b8565b868310156104fa57848901516104f6601f891682610403565b8355505b6001600288020188555050505b505050505050565b600073ffffffffffffffffffffffffffffffffffffffff82169050919050565b600061053a8261050f565b9050919050565b61054a8161052f565b82525050565b60006020820190506105656000830184610541565b92915050565b6138178061057a6000396000f3fe608060405234801561001057600080fd5b506004361061014d5760003560e01c806360316801116100c3578063a22cb4651161007c578063a22cb465146103c4578063b543be12146103e0578063b88d4fde146103fc578063c87b56dd14610418578063e985e9c514610448578063f2fde38b146104785761014d565b806360316801146102ee5780636352211e1461031e57806370a082311461034e578063715018a61461037e5780638da5cb5b1461038857806395d89b41146103a65761014d565b806320c5429b1161011557806320c5429b1461020a57806323b872dd146102265780632f745c591461024257806342842e0e146102725780634f558e791461028e5780634f6ccce7146102be5761014d565b806301ffc9a71461015257806306fdde0314610182578063081812fc146101a0578063095ea7b3146101d057806318160ddd146101ec575b600080fd5b61016c60048036038101906101679190612745565b610494565b604051610179919061278d565b60405180910390f35b61018a61050e565b6040516101979190612838565b60405180910390f35b6101ba60048036038101906101b59190612890565b6105a0565b6040516101c791906128fe565b60405180910390f35b6101ea60048036038101906101e59190612945565b6105bc565b005b6101f46105d2565b6040516102019190612994565b60405180910390f35b610224600480360381019061021f9190612890565b6105df565b005b610240600480360381019061023b91906129af565b61071a565b005b61025c60048036038101906102579190612945565b61081c565b6040516102699190612994565b60405180910390f35b61028c600480360381019061028791906129af565b6108c5565b005b6102a860048036038101906102a39190612890565b6108e5565b6040516102b5919061278d565b60405180910390f35b6102d860048036038101906102d39190612890565b6108f7565b6040516102e59190612994565b60405180910390f35b61030860048036038101906103039190612890565b61096d565b6040516103159190612ac4565b60405180910390f35b61033860048036038101906103339190612890565b610c2a565b60405161034591906128fe565b60405180910390f35b61036860048036038101906103639190612ae6565b610c3c565b6040516103759190612994565b60405180910390f35b610386610cf6565b005b610390610d0a565b60405161039d91906128fe565b60405180910390f35b6103ae610d34565b6040516103bb9190612838565b60405180910390f35b6103de60048036038101906103d99190612b3f565b610dc6565b005b6103fa60048036038101906103f59190612cb4565b610ddc565b005b61041660048036038101906104119190612ecf565b611080565b005b610432600480360381019061042d9190612890565b6110a5565b60405161043f9190612838565b60405180910390f35b610462600480360381019061045d9190612f52565b61110e565b60405161046f919061278d565b60405180910390f35b610492600480360381019061048d9190612ae6565b6111a2565b005b60007f780e9d63000000000000000000000000000000000000000000000000000000007bffffffffffffffffffffffffffffffffffffffffffffffffffffffff1916827bffffffffffffffffffffffffffffffffffffffffffffffffffffffff19161480610507575061050682611228565b5b9050919050565b60606000805461051d90612fc1565b80601f016020809104026020016040519081016040528092919081815260200182805461054990612fc1565b80156105965780601f1061056b57610100808354040283529160200191610596565b820191906000526020600020905b81548152906001019060200180831161057957829003601f168201915b5050505050905090565b60006105ab8261130a565b506105b582611392565b9050919050565b6105ce82826105c96113cf565b6113d7565b5050565b6000600880549050905090565b6105e76113e9565b6105f0816108e5565b61062f576040517f08c379a000000000000000000000000000000000000000000000000000000000815260040161062690613064565b60405180910390fd5b600c600082815260200190815260200160002060009054906101000a900460ff1615610690576040517f08c379a0000000000000000000000000000000000000000000000000000000008152600401610687906130d0565b60405180910390fd5b600061069b82610c2a565b90506001600c600084815260200190815260200160002060006101000a81548160ff0219169083151502179055506106d282611470565b8073ffffffffffffffffffffffffffffffffffffffff16827f1c8c99eaf5bb030b04c4b98b84ee23a66d28a7e7c92ae562912a24fe94ffed0660405160405180910390a35050565b600073ffffffffffffffffffffffffffffffffffffffff168273ffffffffffffffffffffffffffffffffffffffff160361078c5760006040517f64a0ae9200000000000000000000000000000000000000000000000000000000815260040161078391906128fe565b60405180910390fd5b60006107a0838361079b6113cf565b6114f6565b90508373ffffffffffffffffffffffffffffffffffffffff168173ffffffffffffffffffffffffffffffffffffffff1614610816578382826040517f64283d7b00000000000000000000000000000000000000000000000000000000815260040161080d939291906130f0565b60405180910390fd5b50505050565b600061082783610c3c565b821061086c5782826040517fa57d13dc000000000000000000000000000000000000000000000000000000008152600401610863929190613127565b60405180910390fd5b600660008473ffffffffffffffffffffffffffffffffffffffff1673ffffffffffffffffffffffffffffffffffffffff168152602001908152602001600020600083815260200190815260200160002054905092915050565b6108e083838360405180602001604052806000815250611080565b505050565b60006108f0826108e5565b9050919050565b60006109016105d2565b8210610947576000826040517fa57d13dc00000000000000000000000000000000000000000000000000000000815260040161093e929190613127565b60405180910390fd5b6008828154811061095b5761095a613150565b5b90600052602060002001549050919050565b6109756126a7565b61097e826108e5565b6109bd576040517f08c379a00000000000000000000000000000000000000000000000000000000081526004016109b4906131cb565b60405180910390fd5b600d60008381526020019081526020016000206040518060800160405290816000820180546109eb90612fc1565b80601f0160208091040260200160405190810160405280929190818152602001828054610a1790612fc1565b8015610a645780601f10610a3957610100808354040283529160200191610a64565b820191906000526020600020905b815481529060010190602001808311610a4757829003601f168201915b50505050508152602001600182018054610a7d90612fc1565b80601f0160208091040260200160405190810160405280929190818152602001828054610aa990612fc1565b8015610af65780601f10610acb57610100808354040283529160200191610af6565b820191906000526020600020905b815481529060010190602001808311610ad957829003601f168201915b50505050508152602001600282018054610b0f90612fc1565b80601f0160208091040260200160405190810160405280929190818152602001828054610b3b90612fc1565b8015610b885780601f10610b5d57610100808354040283529160200191610b88565b820191906000526020600020905b815481529060010190602001808311610b6b57829003601f168201915b50505050508152602001600382018054610ba190612fc1565b80601f0160208091040260200160405190810160405280929190818152602001828054610bcd90612fc1565b8015610c1a5780601f10610bef57610100808354040283529160200191610c1a565b820191906000526020600020905b815481529060010190602001808311610bfd57829003601f168201915b5050505050815250509050919050565b6000610c358261130a565b9050919050565b60008073ffffffffffffffffffffffffffffffffffffffff168273ffffffffffffffffffffffffffffffffffffffff1603610caf5760006040517f89c62b64000000000000000000000000000000000000000000000000000000008152600401610ca691906128fe565b60405180910390fd5b600360008373ffffffffffffffffffffffffffffffffffffffff1673ffffffffffffffffffffffffffffffffffffffff168152602001908152602001600020549050919050565b610cfe6113e9565b610d086000611613565b565b6000600a60009054906101000a900473ffffffffffffffffffffffffffffffffffffffff16905090565b606060018054610d4390612fc1565b80601f0160208091040260200160405190810160405280929190818152602001828054610d6f90612fc1565b8015610dbc5780601f10610d9157610100808354040283529160200191610dbc565b820191906000526020600020905b815481529060010190602001808311610d9f57829003601f168201915b5050505050905090565b610dd8610dd16113cf565b83836116d9565b5050565b610de46113e9565b600073ffffffffffffffffffffffffffffffffffffffff168873ffffffffffffffffffffffffffffffffffffffff1603610e53576040517f08c379a0000000000000000000000000000000000000000000000000000000008152600401610e4a90613237565b60405180910390fd5b6000600b549050610e648982611848565b600b6000815480929190610e7790613286565b9190505550610ebb6040518060400160405280601081526020017f4d696e74696e67204e465420666f723a000000000000000000000000000000008152508a611941565b604051806080016040528089815260200188815260200187815260200186815250600d60008381526020019081526020016000206000820151816000019081610f04919061347a565b506020820151816001019081610f1a919061347a565b506040820151816002019081610f30919061347a565b506060820151816003019081610f46919061347a565b5090505060405180608001604052808581526020018a73ffffffffffffffffffffffffffffffffffffffff16815260200184815260200183815250600e60008381526020019081526020016000206000820151816000019081610fa9919061347a565b5060208201518160010160006101000a81548173ffffffffffffffffffffffffffffffffffffffff021916908373ffffffffffffffffffffffffffffffffffffffff1602179055506040820151816002019081611006919061347a565b50606082015181600301908161101c919061347a565b50905050808973ffffffffffffffffffffffffffffffffffffffff167f780a28fbb79f06c97e7fb309899306018b94c0793e1497664afe358210e315c78a8a8a8a60405161106d949392919061354c565b60405180910390a3505050505050505050565b61108b84848461071a565b61109f6110966113cf565b858585856119dd565b50505050565b60606110b08261130a565b5060006110bb611b8e565b905060008151116110db5760405180602001604052806000815250611106565b806110e584611ba5565b6040516020016110f69291906135e9565b6040516020818303038152906040525b915050919050565b6000600560008473ffffffffffffffffffffffffffffffffffffffff1673ffffffffffffffffffffffffffffffffffffffff16815260200190815260200160002060008373ffffffffffffffffffffffffffffffffffffffff1673ffffffffffffffffffffffffffffffffffffffff16815260200190815260200160002060009054906101000a900460ff16905092915050565b6111aa6113e9565b600073ffffffffffffffffffffffffffffffffffffffff168173ffffffffffffffffffffffffffffffffffffffff160361121c5760006040517f1e4fbdf700000000000000000000000000000000000000000000000000000000815260040161121391906128fe565b60405180910390fd5b61122581611613565b50565b60007f80ac58cd000000000000000000000000000000000000000000000000000000007bffffffffffffffffffffffffffffffffffffffffffffffffffffffff1916827bffffffffffffffffffffffffffffffffffffffffffffffffffffffff191614806112f357507f5b5e139f000000000000000000000000000000000000000000000000000000007bffffffffffffffffffffffffffffffffffffffffffffffffffffffff1916827bffffffffffffffffffffffffffffffffffffffffffffffffffffffff1916145b80611303575061130282611c73565b5b9050919050565b60008061131683611cdd565b9050600073ffffffffffffffffffffffffffffffffffffffff168173ffffffffffffffffffffffffffffffffffffffff160361138957826040517f7e2732890000000000000000000000000000000000000000000000000000000081526004016113809190612994565b60405180910390fd5b80915050919050565b60006004600083815260200190815260200160002060009054906101000a900473ffffffffffffffffffffffffffffffffffffffff169050919050565b600033905090565b6113e48383836001611d1a565b505050565b6113f16113cf565b73ffffffffffffffffffffffffffffffffffffffff1661140f610d0a565b73ffffffffffffffffffffffffffffffffffffffff161461146e576114326113cf565b6040517f118cdaa700000000000000000000000000000000000000000000000000000000815260040161146591906128fe565b60405180910390fd5b565b600061147f60008360006114f6565b9050600073ffffffffffffffffffffffffffffffffffffffff168173ffffffffffffffffffffffffffffffffffffffff16036114f257816040517f7e2732890000000000000000000000000000000000000000000000000000000081526004016114e99190612994565b60405180910390fd5b5050565b600080611504858585611edf565b9050600073ffffffffffffffffffffffffffffffffffffffff168173ffffffffffffffffffffffffffffffffffffffff160361154857611543846120f9565b611587565b8473ffffffffffffffffffffffffffffffffffffffff168173ffffffffffffffffffffffffffffffffffffffff1614611586576115858185612142565b5b5b600073ffffffffffffffffffffffffffffffffffffffff168573ffffffffffffffffffffffffffffffffffffffff16036115c9576115c48461222d565b611608565b8473ffffffffffffffffffffffffffffffffffffffff168173ffffffffffffffffffffffffffffffffffffffff16146116075761160685856122fe565b5b5b809150509392505050565b6000600a60009054906101000a900473ffffffffffffffffffffffffffffffffffffffff16905081600a60006101000a81548173ffffffffffffffffffffffffffffffffffffffff021916908373ffffffffffffffffffffffffffffffffffffffff1602179055508173ffffffffffffffffffffffffffffffffffffffff168173ffffffffffffffffffffffffffffffffffffffff167f8be0079c531659141344cd1fd0a4f28419497f9722a3daafe3b4186f6b6457e060405160405180910390a35050565b600073ffffffffffffffffffffffffffffffffffffffff168273ffffffffffffffffffffffffffffffffffffffff160361174a57816040517f5b08ba1800000000000000000000000000000000000000000000000000000000815260040161174191906128fe565b60405180910390fd5b80600560008573ffffffffffffffffffffffffffffffffffffffff1673ffffffffffffffffffffffffffffffffffffffff16815260200190815260200160002060008473ffffffffffffffffffffffffffffffffffffffff1673ffffffffffffffffffffffffffffffffffffffff16815260200190815260200160002060006101000a81548160ff0219169083151502179055508173ffffffffffffffffffffffffffffffffffffffff168373ffffffffffffffffffffffffffffffffffffffff167f17307eab39ab6107e8899845ad3d59bd9653f200f220920489ca2b5937696c318360405161183b919061278d565b60405180910390a3505050565b600073ffffffffffffffffffffffffffffffffffffffff168273ffffffffffffffffffffffffffffffffffffffff16036118ba5760006040517f64a0ae920000000000000000000000000000000000000000000000000000000081526004016118b191906128fe565b60405180910390fd5b60006118c8838360006114f6565b9050600073ffffffffffffffffffffffffffffffffffffffff168173ffffffffffffffffffffffffffffffffffffffff161461193c5760006040517f73c6ac6e00000000000000000000000000000000000000000000000000000000815260040161193391906128fe565b60405180910390fd5b505050565b6119d9828260405160240161195792919061360d565b6040516020818303038152906040527f319af333000000000000000000000000000000000000000000000000000000007bffffffffffffffffffffffffffffffffffffffffffffffffffffffff19166020820180517bffffffffffffffffffffffffffffffffffffffffffffffffffffffff8381831617835250505050612389565b5050565b60008373ffffffffffffffffffffffffffffffffffffffff163b1115611b87578273ffffffffffffffffffffffffffffffffffffffff1663150b7a02868685856040518563ffffffff1660e01b8152600401611a3c9493929190613692565b6020604051808303816000875af1925050508015611a7857506040513d601f19601f82011682018060405250810190611a7591906136f3565b60015b611afc573d8060008114611aa8576040519150601f19603f3d011682016040523d82523d6000602084013e611aad565b606091505b506000815103611af457836040517f64a0ae92000000000000000000000000000000000000000000000000000000008152600401611aeb91906128fe565b60405180910390fd5b805181602001fd5b63150b7a0260e01b7bffffffffffffffffffffffffffffffffffffffffffffffffffffffff1916817bffffffffffffffffffffffffffffffffffffffffffffffffffffffff191614611b8557836040517f64a0ae92000000000000000000000000000000000000000000000000000000008152600401611b7c91906128fe565b60405180910390fd5b505b5050505050565b606060405180602001604052806000815250905090565b606060006001611bb4846123a3565b01905060008167ffffffffffffffff811115611bd357611bd2612b89565b5b6040519080825280601f01601f191660200182016040528015611c055781602001600182028036833780820191505090505b509050600082602001820190505b600115611c68578080600190039150507f3031323334353637383961626364656600000000000000000000000000000000600a86061a8153600a8581611c5c57611c5b613720565b5b04945060008503611c13575b819350505050919050565b60007f01ffc9a7000000000000000000000000000000000000000000000000000000007bffffffffffffffffffffffffffffffffffffffffffffffffffffffff1916827bffffffffffffffffffffffffffffffffffffffffffffffffffffffff1916149050919050565b60006002600083815260200190815260200160002060009054906101000a900473ffffffffffffffffffffffffffffffffffffffff169050919050565b8080611d535750600073ffffffffffffffffffffffffffffffffffffffff168273ffffffffffffffffffffffffffffffffffffffff1614155b15611e87576000611d638461130a565b9050600073ffffffffffffffffffffffffffffffffffffffff168373ffffffffffffffffffffffffffffffffffffffff1614158015611dce57508273ffffffffffffffffffffffffffffffffffffffff168173ffffffffffffffffffffffffffffffffffffffff1614155b8015611de15750611ddf818461110e565b155b15611e2357826040517fa9fbf51f000000000000000000000000000000000000000000000000000000008152600401611e1a91906128fe565b60405180910390fd5b8115611e8557838573ffffffffffffffffffffffffffffffffffffffff168273ffffffffffffffffffffffffffffffffffffffff167f8c5be1e5ebec7d5bd14f71427d1e84f3dd0314c0f7b2291e5b200ac8c7c3b92560405160405180910390a45b505b836004600085815260200190815260200160002060006101000a81548173ffffffffffffffffffffffffffffffffffffffff021916908373ffffffffffffffffffffffffffffffffffffffff16021790555050505050565b600080611eeb84611cdd565b9050600073ffffffffffffffffffffffffffffffffffffffff168373ffffffffffffffffffffffffffffffffffffffff1614611f2d57611f2c8184866124f6565b5b600073ffffffffffffffffffffffffffffffffffffffff168173ffffffffffffffffffffffffffffffffffffffff1614611fbe57611f6f600085600080611d1a565b6001600360008373ffffffffffffffffffffffffffffffffffffffff1673ffffffffffffffffffffffffffffffffffffffff168152602001908152602001600020600082825403925050819055505b600073ffffffffffffffffffffffffffffffffffffffff168573ffffffffffffffffffffffffffffffffffffffff1614612041576001600360008773ffffffffffffffffffffffffffffffffffffffff1673ffffffffffffffffffffffffffffffffffffffff168152602001908152602001600020600082825401925050819055505b846002600086815260200190815260200160002060006101000a81548173ffffffffffffffffffffffffffffffffffffffff021916908373ffffffffffffffffffffffffffffffffffffffff160217905550838573ffffffffffffffffffffffffffffffffffffffff168273ffffffffffffffffffffffffffffffffffffffff167fddf252ad1be2c89b69c2b068fc378daa952ba7f163c4a11628f55a4df523b3ef60405160405180910390a4809150509392505050565b6008805490506009600083815260200190815260200160002081905550600881908060018154018082558091505060019003906000526020600020016000909190919091505550565b600061214d83610c3c565b90506000600760008481526020019081526020016000205490506000600660008673ffffffffffffffffffffffffffffffffffffffff1673ffffffffffffffffffffffffffffffffffffffff16815260200190815260200160002090508282146121f95760008160008581526020019081526020016000205490508082600085815260200190815260200160002081905550826007600083815260200190815260200160002081905550505b6007600085815260200190815260200160002060009055806000848152602001908152602001600020600090555050505050565b60006001600880549050612241919061374f565b905060006009600084815260200190815260200160002054905060006008838154811061227157612270613150565b5b90600052602060002001549050806008838154811061229357612292613150565b5b9060005260206000200181905550816009600083815260200190815260200160002081905550600960008581526020019081526020016000206000905560088054806122e2576122e1613783565b5b6001900381819060005260206000200160009055905550505050565b6000600161230b84610c3c565b612315919061374f565b905081600660008573ffffffffffffffffffffffffffffffffffffffff1673ffffffffffffffffffffffffffffffffffffffff168152602001908152602001600020600083815260200190815260200160002081905550806007600084815260200190815260200160002081905550505050565b6123a0816123986125ba6125db565b63ffffffff16565b50565b600080600090507a184f03e93ff9f4daa797ed6e38ed64bf6a1f0100000000000000008310612401577a184f03e93ff9f4daa797ed6e38ed64bf6a1f01000000000000000083816123f7576123f6613720565b5b0492506040810190505b6d04ee2d6d415b85acef8100000000831061243e576d04ee2d6d415b85acef8100000000838161243457612433613720565b5b0492506020810190505b662386f26fc10000831061246d57662386f26fc10000838161246357612462613720565b5b0492506010810190505b6305f5e1008310612496576305f5e100838161248c5761248b613720565b5b0492506008810190505b61271083106124bb5761271083816124b1576124b0613720565b5b0492506004810190505b606483106124de57606483816124d4576124d3613720565b5b0492506002810190505b600a83106124ed576001810190505b80915050919050565b6125018383836125e6565b6125b557600073ffffffffffffffffffffffffffffffffffffffff168373ffffffffffffffffffffffffffffffffffffffff160361257657806040517f7e27328900000000000000000000000000000000000000000000000000000000815260040161256d9190612994565b60405180910390fd5b81816040517f177e802f0000000000000000000000000000000000000000000000000000000081526004016125ac929190613127565b60405180910390fd5b505050565b60006a636f6e736f6c652e6c6f679050600080835160208501845afa505050565b6126cf819050919050565b60008073ffffffffffffffffffffffffffffffffffffffff168373ffffffffffffffffffffffffffffffffffffffff161415801561269e57508273ffffffffffffffffffffffffffffffffffffffff168473ffffffffffffffffffffffffffffffffffffffff16148061265f575061265e848461110e565b5b8061269d57508273ffffffffffffffffffffffffffffffffffffffff1661268583611392565b73ffffffffffffffffffffffffffffffffffffffff16145b5b90509392505050565b6040518060800160405280606081526020016060815260200160608152602001606081525090565b6126d76137b2565b565b6000604051905090565b600080fd5b600080fd5b60007fffffffff0000000000000000000000000000000000000000000000000000000082169050919050565b612722816126ed565b811461272d57600080fd5b50565b60008135905061273f81612719565b92915050565b60006020828403121561275b5761275a6126e3565b5b600061276984828501612730565b91505092915050565b60008115159050919050565b61278781612772565b82525050565b60006020820190506127a2600083018461277e565b92915050565b600081519050919050565b600082825260208201905092915050565b60005b838110156127e25780820151818401526020810190506127c7565b60008484015250505050565b6000601f19601f8301169050919050565b600061280a826127a8565b61281481856127b3565b93506128248185602086016127c4565b61282d816127ee565b840191505092915050565b6000602082019050818103600083015261285281846127ff565b905092915050565b6000819050919050565b61286d8161285a565b811461287857600080fd5b50565b60008135905061288a81612864565b92915050565b6000602082840312156128a6576128a56126e3565b5b60006128b48482850161287b565b91505092915050565b600073ffffffffffffffffffffffffffffffffffffffff82169050919050565b60006128e8826128bd565b9050919050565b6128f8816128dd565b82525050565b600060208201905061291360008301846128ef565b92915050565b612922816128dd565b811461292d57600080fd5b50565b60008135905061293f81612919565b92915050565b6000806040838503121561295c5761295b6126e3565b5b600061296a85828601612930565b925050602061297b8582860161287b565b9150509250929050565b61298e8161285a565b82525050565b60006020820190506129a96000830184612985565b92915050565b6000806000606084860312156129c8576129c76126e3565b5b60006129d686828701612930565b93505060206129e786828701612930565b92505060406129f88682870161287b565b9150509250925092565b600082825260208201905092915050565b6000612a1e826127a8565b612a288185612a02565b9350612a388185602086016127c4565b612a41816127ee565b840191505092915050565b60006080830160008301518482036000860152612a698282612a13565b91505060208301518482036020860152612a838282612a13565b91505060408301518482036040860152612a9d8282612a13565b91505060608301518482036060860152612ab78282612a13565b9150508091505092915050565b60006020820190508181036000830152612ade8184612a4c565b905092915050565b600060208284031215612afc57612afb6126e3565b5b6000612b0a84828501612930565b91505092915050565b612b1c81612772565b8114612b2757600080fd5b50565b600081359050612b3981612b13565b92915050565b60008060408385031215612b5657612b556126e3565b5b6000612b6485828601612930565b9250506020612b7585828601612b2a565b9150509250929050565b600080fd5b600080fd5b7f4e487b7100000000000000000000000000000000000000000000000000000000600052604160045260246000fd5b612bc1826127ee565b810181811067ffffffffffffffff82111715612be057612bdf612b89565b5b80604052505050565b6000612bf36126d9565b9050612bff8282612bb8565b919050565b600067ffffffffffffffff821115612c1f57612c1e612b89565b5b612c28826127ee565b9050602081019050919050565b82818337600083830152505050565b6000612c57612c5284612c04565b612be9565b905082815260208101848484011115612c7357612c72612b84565b5b612c7e848285612c35565b509392505050565b600082601f830112612c9b57612c9a612b7f565b5b8135612cab848260208601612c44565b91505092915050565b600080600080600080600080610100898b031215612cd557612cd46126e3565b5b6000612ce38b828c01612930565b985050602089013567ffffffffffffffff811115612d0457612d036126e8565b5b612d108b828c01612c86565b975050604089013567ffffffffffffffff811115612d3157612d306126e8565b5b612d3d8b828c01612c86565b965050606089013567ffffffffffffffff811115612d5e57612d5d6126e8565b5b612d6a8b828c01612c86565b955050608089013567ffffffffffffffff811115612d8b57612d8a6126e8565b5b612d978b828c01612c86565b94505060a089013567ffffffffffffffff811115612db857612db76126e8565b5b612dc48b828c01612c86565b93505060c089013567ffffffffffffffff811115612de557612de46126e8565b5b612df18b828c01612c86565b92505060e089013567ffffffffffffffff811115612e1257612e116126e8565b5b612e1e8b828c01612c86565b9150509295985092959890939650565b600067ffffffffffffffff821115612e4957612e48612b89565b5b612e52826127ee565b9050602081019050919050565b6000612e72612e6d84612e2e565b612be9565b905082815260208101848484011115612e8e57612e8d612b84565b5b612e99848285612c35565b509392505050565b600082601f830112612eb657612eb5612b7f565b5b8135612ec6848260208601612e5f565b91505092915050565b60008060008060808587031215612ee957612ee86126e3565b5b6000612ef787828801612930565b9450506020612f0887828801612930565b9350506040612f198782880161287b565b925050606085013567ffffffffffffffff811115612f3a57612f396126e8565b5b612f4687828801612ea1565b91505092959194509250565b60008060408385031215612f6957612f686126e3565b5b6000612f7785828601612930565b9250506020612f8885828601612930565b9150509250929050565b7f4e487b7100000000000000000000000000000000000000000000000000000000600052602260045260246000fd5b60006002820490506001821680612fd957607f821691505b602082108103612fec57612feb612f92565b5b50919050565b7f4552433732313a206f776e657220717565727920666f72206e6f6e657869737460008201527f656e7420746f6b656e0000000000000000000000000000000000000000000000602082015250565b600061304e6029836127b3565b915061305982612ff2565b604082019050919050565b6000602082019050818103600083015261307d81613041565b9050919050565b7f546f6b656e20616c7265616479207265766f6b65640000000000000000000000600082015250565b60006130ba6015836127b3565b91506130c582613084565b602082019050919050565b600060208201905081810360008301526130e9816130ad565b9050919050565b600060608201905061310560008301866128ef565b6131126020830185612985565b61311f60408301846128ef565b949350505050565b600060408201905061313c60008301856128ef565b6131496020830184612985565b9392505050565b7f4e487b7100000000000000000000000000000000000000000000000000000000600052603260045260246000fd5b7f517565727920666f72206e6f6e6578697374656e7420746f6b656e0000000000600082015250565b60006131b5601b836127b3565b91506131c08261317f565b602082019050919050565b600060208201905081810360008301526131e4816131a8565b9050919050565b7f43616e6e6f74206d696e7420746f20746865207a65726f206164647265737300600082015250565b6000613221601f836127b3565b915061322c826131eb565b602082019050919050565b6000602082019050818103600083015261325081613214565b9050919050565b7f4e487b7100000000000000000000000000000000000000000000000000000000600052601160045260246000fd5b60006132918261285a565b91507fffffffffffffffffffffffffffffffffffffffffffffffffffffffffffffffff82036132c3576132c2613257565b5b600182019050919050565b60008190508160005260206000209050919050565b60006020601f8301049050919050565b600082821b905092915050565b6000600883026133307fffffffffffffffffffffffffffffffffffffffffffffffffffffffffffffffff826132f3565b61333a86836132f3565b95508019841693508086168417925050509392505050565b6000819050919050565b600061337761337261336d8461285a565b613352565b61285a565b9050919050565b6000819050919050565b6133918361335c565b6133a561339d8261337e565b848454613300565b825550505050565b600090565b6133ba6133ad565b6133c5818484613388565b505050565b5b818110156133e9576133de6000826133b2565b6001810190506133cb565b5050565b601f82111561342e576133ff816132ce565b613408846132e3565b81016020851015613417578190505b61342b613423856132e3565b8301826133ca565b50505b505050565b600082821c905092915050565b600061345160001984600802613433565b1980831691505092915050565b600061346a8383613440565b9150826002028217905092915050565b613483826127a8565b67ffffffffffffffff81111561349c5761349b612b89565b5b6134a68254612fc1565b6134b18282856133ed565b600060209050601f8311600181146134e457600084156134d2578287015190505b6134dc858261345e565b865550613544565b601f1984166134f2866132ce565b60005b8281101561351a578489015182556001820191506020850194506020810190506134f5565b868310156135375784890151613533601f891682613440565b8355505b6001600288020188555050505b505050505050565b6000608082019050818103600083015261356681876127ff565b9050818103602083015261357a81866127ff565b9050818103604083015261358e81856127ff565b905081810360608301526135a281846127ff565b905095945050505050565b600081905092915050565b60006135c3826127a8565b6135cd81856135ad565b93506135dd8185602086016127c4565b80840191505092915050565b60006135f582856135b8565b915061360182846135b8565b91508190509392505050565b6000604082019050818103600083015261362781856127ff565b905061363660208301846128ef565b9392505050565b600081519050919050565b600082825260208201905092915050565b60006136648261363d565b61366e8185613648565b935061367e8185602086016127c4565b613687816127ee565b840191505092915050565b60006080820190506136a760008301876128ef565b6136b460208301866128ef565b6136c16040830185612985565b81810360608301526136d38184613659565b905095945050505050565b6000815190506136ed81612719565b92915050565b600060208284031215613709576137086126e3565b5b6000613717848285016136de565b91505092915050565b7f4e487b7100000000000000000000000000000000000000000000000000000000600052601260045260246000fd5b600061375a8261285a565b91506137658361285a565b925082820390508181111561377d5761377c613257565b5b92915050565b7f4e487b7100000000000000000000000000000000000000000000000000000000600052603160045260246000fd5b7f4e487b7100000000000000000000000000000000000000000000000000000000600052605160045260246000fdfea2646970667358221220b57cc14f38327dbfde032da18a6bb54c84efaa54e1575067252df90610920f5364736f6c634300081b0033",
  "linkReferences": {},
  "deployedLinkReferences": {}
}